:020000040800F2
:100000005008002035020008AD29000855210008DD
:1000100035280008971C0008BB41000800000000BC
:100020000000000000000000000000003134000863
:100030006B1E0008000000002D3300083D3800084A
:100040004F0200084F0200084F0200084F0200084C
:100050004F0200084F0200084F0200084F0200083C
:100060004F0200084F0200084F0200084F0200082C
:100070004F0200084F0200084F0200084F0200081C
:100080004F020008991C00084F0200084F020008A8
:100090004F0200084F0200084F0200084F020008FC
:1000A0004F020008AD3A00084F0200084F02000856
:1000B0004F0200084F0200084F0200084F020008DC
:1000C0004F0200084F0200084F0200084F020008CC
:1000D0004F0200084F020008813E0008993F0008C7
:1000E0004F0200084F0200084F02000800F002F81B
:1000F00000F090F80AA090E8000C82448344AAF132
:100100000107DA4501D100F085F8AFF2090EBAE82F
:100110000F0013F0010F18BFFB1A43F0010318473B
:100120001C6000003C600000103A24BF78C878C111
:10013000FAD8520724BF30C830C144BF04680C60ED
:10014000704700000023002400250026103A28BF35
:1001500078C1FBD8520728BF30C148BF0B60704739
:100160006E2900F0D182702900F02B86662905F0F7
:10017000A283652905F09F83672905F09C83612987
:1001800005F09B8303681B0A28BF41F080016929A1
:1001900000F07E82642900F07B82752900F078826D
:1001A0006F2900F0B885782900F0F785E92900F07B
:1001B0005385E42900F05085F52900F04D85EF299D
:1001C00000F0B585F82900F0F6850368DB0928BF43
:1001D00041F08001632901F09F80732901F0A48020
:1001E000E32901F0AF80F32901F0B48000207047CB
:1001F0001FB500F023FE04000020002104F0B0FA37
:10020000401C60600020002104F094FAE0601FBDF3
:1002100010B510BD01F038F91146FFF7E9FF04F001
:1002200029FA01F05FF903B4FFF7F2FF03BC01F014
:1002300063F900000948804709480047FEE7FEE7E8
:10024000FEE7FEE7FEE7FEE7FEE7FEE7FEE7FEE786
:1002500004480549054A064B70470000413800082C
:10026000ED0000085002002050080020500400203B
:10027000500400201CB50C46064B7B446946009098
:10028000204600F06AFC04460020694600F078FC35
:1002900020461CBD030900000FB47CB50C0009AA60
:1002A000009001D02044401E084B7B4469460190D9
:1002B000089800F052FC05461CB10020694600F089
:1002C0005FFC28467CBC5DF814FB0000DD080000E4
:1002D0002DE9F05F894604464FF0000ADFF874B15B
:1002E000FB44C0F820A02046E1688847002874D06D
:1002F000252806D0D4E901219047206A401C2062BD
:10030000F1E700265F462046E16888472028054639
:1003100007DB312D05D2781910F8200C08B10643FF
:10032000F1E7B00701D526F00406C4F81CA00027A9
:10033000C4F818A02A2D09D0284603F0B5FF38B319
:1003400004EB8708303DC8F8185019E059F8041B31
:10035000204604EB87029161E1688847012F05463A
:1003600018D1E069002820DA26F020061DE0D8F830
:10037000180000EB800005EB40003038C8F818008A
:100380002046E1688847054603F08EFF0028EED13D
:10039000012F0AD02E2D08D12046E16888477F1C06
:1003A0000546022F46F02006C4DBA069002803DAC8
:1003B000404246F00106A061F00701D026F0100689
:1003C0006C2D0BD0682D09D04C2D39D06A2D35D02D
:1003D000742D35D07A2D33D016E038E0E1682F4601
:1003E00020468847B842054609D16C2F26D04FF4E5
:1003F0008060E168064320468847054604E06C2F8C
:100400001AD04FF4807006430DB3A5F141001928AE
:1004100002D8203546F400664A4629462046266022
:100420004E46FFF79DFE80B101280BD0F61D26F049
:10043000070000F1080956E74020E4E78020D8E7EC
:100440000020D6E706F104094DE7284652E7206A66
:10045000BDE8F09FBA5C0000032A40F2308010F043
:10046000030C00F0158011F8013BBCF1020F62444F
:1004700098BF11F801CB00F8013B38BF11F8013BE0
:10048000A2F1040298BF00F801CB38BF00F8013B8D
:1004900011F0030300F0A084083AC0F0088051F87E
:1004A000043B083A51F804CBA0E80810F5E7121D08
:1004B0005CBF51F8043B40F8043BAFF30080D20727
:1004C00024BF11F8013B11F801CB48BF11F8012BF3
:1004D00024BF00F8013B00F801CB48BF00F8012B16
:1004E00070474FF0000200B51346944696462039F7
:1004F00022BFA0E80C50A0E80C50B1F12001BFF4DD
:10050000F7AF090728BFA0E80C5048BF0CC05DF842
:1005100004EB890028BF40F8042B08BF704748BF90
:1005200020F8022B11F0804F18BF00F8012B704704
:100530004FF0013C50F8042B51F8043B9A4221D172
:10054000A2EB0C03934313EACC1317D150F8042BFE
:1005500051F8043B9A4215D1A2EB0C03934313EAE2
:10056000CC130BD150F8042B51F8043B9A4209D11B
:10057000A2EB0C03934313EACC13DBD04FF0000043
:10058000704700BFD01A01BAB1FA81F101F0180129
:1005900022FA01F0CB40C1F12001DBB2C0B2C01A97
:1005A0002CFA01F3D11A914311EAC311E6D1704735
:1005B00070477047704710B500F044FC006810BDEC
:1005C00010B5044600F03EFC046010BD70B5044652
:1005D00085690068C10601D5302600E02026C007E5
:1005E00007D070BDD4E9012130469047206A401CF5
:1005F00020626D1EF6D570BD70B504468569007821
:10060000C00707D170BDD4E9012120209047206A9E
:10061000401C20626D1EF6D570BD09684A0501D5E3
:1006200040B27047C905FCD500B2704709684A0559
:1006300001D5C0B27047C905FCD580B2704770B50E
:100640000C460546012A05D02878800600D5EA69BF
:10065000002302E0012305E05B1C934202D2E05C30
:100660000028F9D1A869E618C01AA861286A1844B8
:1006700028622846FFF7AAFF04E0D5E9012114F813
:10068000010B9047B442F8D32846FFF7B5FF70BD81
:100690002DE9F0410646002410687529314616A55B
:1006A00010D0FFF7BAFF002802DA404213A507E096
:1006B00031688A0701D512A502E0490704D511A5C2
:1006C000012401E0FFF7B2FF00210A2206F124070E
:1006D00009E0B0FBF2FCB0FBF2F302FB1C0030308F
:1006E00078541846491C0028F3D123462A46304640
:1006F000BDE8F04100F0EFBB000000002D0000005D
:100700002B0000002000000011680268006A5305F9
:1007100001D508700AE0D30501D5088006E013066C
:1007200003D5C217C1E9000200E00860012070474C
:1007300070472DE9FF4F0C461E464FF0FF378BB038
:10074000D2E90001DDF860800A908A46C1F30A55BB
:1007500005B93D46002108464FF00000BAF1000FF0
:1007600000F4400005DA00EB80004FF4400101EA9C
:1007700050004FEA9059B9F1010F00DDB9460A98CF
:1007800050EA4A000ED044F61050A5F2FF3545431A
:100790002F14B8F1000F1ED07542291E1EDDC9F1BD
:1007A00000021CE0B8F1010F4FF0000001D0302131
:1007B00003E0F24305E02154401CB042FBDB30462D
:1007C0000022002121540B99C1F80880C1E90020C2
:1007D0000FB0BDE8F08FBD1B6D1CDEE74A4600DAA6
:1007E000694206A800F0BAFD06AB93E8070003AB28
:1007F00083E8070050460A9900F085FE8DE807005F
:10080000A0F500501F3800900398002D0ADD42F239
:100810001F014A460844002303A90390684601F0DB
:10082000EEF809E0A0F500504A461F38002303A95E
:100830000390684601F0F8F88DE807000004000C0A
:1008400003D04FF0FF30410800E01046B8F1000F30
:1008500003D00022009215461EE0751E05D400F05C
:10086000F5FA303262556D1EF9D5B34601220843C0
:1008700002D000227F1C04E02078302801D1002221
:100880007F1E002A099784D01DE0112D07DA00F0A1
:10089000DDFA303262556D1C50EA0102F5D1084391
:1008A00002D00098C8B10EE00021681E05E0235C6C
:1008B000625C63542254401E491C8142F7DBAB4604
:1008C000A81B401E0990002004F80B000B98099A01
:1008D000C0F80880C0E9002B7AE711264FF0000825
:1008E00057E72DE9F04F88460446D21D22F0070154
:1008F00091B0D1E90001CDE90A0103F05FFC0246A5
:100900000B98C00F01D02D2007E02068810701D58A
:100910002B2002E0202101EAC000032A099001D027
:10092000072A05DB03464146204600F0ABFC0BE1FD
:100930002078800601D5E06900E00620B8F1650F57
:10094000814606D0B8F1660F18D0B8F1670F70D1A4
:1009500031E00020B9F1110F009001DB112301E01B
:1009600009F101030AAA01A90CA8FFF7E2FEDDE9DB
:100970000C70002609F10105834647E001204B4633
:1009800000904FF000470AAA01A90CA8FFF7D1FE7A
:10099000DDE90DB00C995D46002610B909F10100A2
:1009A0000D18B9EB050003D4C0F1FF3609F10105BC
:1009B000A5EB09002BE0B9F1010F01DA4FF00109B5
:1009C0000020B9F1110F0090484601DD112300E02D
:1009D00003460AAA01A90CA8FFF7ABFEDDE90C70DB
:1009E0004D4600268346207800070AD4AB4500DA3E
:1009F0005D4601A8012D04DD411911F8011C3029C3
:100A000007D04F4502DA17F1040F04DA01208246BD
:100A10000FE06D1EEEE7002F02DCED1B3E4403E00D
:100A2000781CA84200DD7D1CB81B00F1010A4FF0C4
:100A300000472078000703D4AA4501DB4FF0FF3AB6
:100A40000021B7F1004F0DF143088DF8431024D079
:100A500002202B23002F01DA7F422D230A21021EC0
:100A6000A0F1010000DC5FB197FBF1FC97FBF1F214
:100A700001FB1C7C17460CF1300C08F801CDEEE7A9
:100A8000A8F1010003702188090501D5452100E086
:100A90006521A0F1010800F8011C09980FA9A1EB3C
:100AA0000807FF1D00B10120411901EBEA70A1699F
:100AB0003844081A401EA0612078C00602D420469F
:100AC000FFF784FD099828B1D4E901219047206AF5
:100AD000401C20622078C00622D52046FFF776FD14
:100AE0001EE0002E04DBB34502DD01A8805D00E0BE
:100AF0003020D4E901219047206A401C2062761CF6
:100B0000AAF101005FEA000A0AD100F097F9C06873
:100B10000168405CD4E901219047206A401C2062B2
:100B2000281EA5F10105DCDC07E0D4E9012118F855
:100B3000010B9047206A401C2062381EA7F1010774
:100B4000F3DC2046FFF758FD032011B041E600001A
:100B500001694A1C02610878704700B58FB0CDE981
:100B600001310021059105497944CDE90310114671
:100B70006846FFF7ADFB0FB000BD0000E5FFFFFFCB
:100B80000A6802F8010B0A607047D1E900239A4213
:100B900002D2531C0B601070704700002DE9FF5FFC
:100BA00015468A460446DFF8AC80F8440027D8E9A9
:100BB00000103E46CDE9001010E03AF816106A46E3
:100BC00002A800F03DFC411C07D02178890603D51E
:100BD000E269391891420DD80744761C20788006C6
:100BE00002D5E069B84205DDAE42E6DB3AF8160010
:100BF0000028E2D1A069C01BA0612046FFF7E6FCF7
:100C0000D8E90010CDE90010002017E03AF81810DC
:100C10006A4602A800F014FCB0F1FF3F81460BD0F9
:100C200000250DF1080B05E0D4E901211BF80500B2
:100C300090476D1C4D45F7D308F10100B042804646
:100C4000E4DB206A384420622046FFF7D5FCBDE88B
:100C5000FF9F0000025400002DE9F0418046D21DA4
:100C600022F007020025D2E90002F52915A614D0CA
:100C7000011E72F1000106DA0023D0EB030063EBE2
:100C8000020211A608E0D8F800108B0701D50FA6C4
:100C900002E0490701D50EA601251146002408F1FE
:100CA000240704E000F0D2F830323A55641C50EAD0
:100CB0000102F7D12B46324621464046BDE8F041BD
:100CC00000F009B9000000002D0000002B0000001A
:100CD0002000000030B4002100F1240408E002F0FC
:100CE0000705D208303542EA4372DB086554491CD7
:100CF00052EA0305F3D10468002310A2250707D5A3
:100D0000A40600D421B1C46901230DA2641EC461EC
:100D100030BC00F0E0B810B5044621461068FFF77B
:100D200085FC02462046BDE810400023D2E7D21DD4
:100D300022F00701D1E90023CCE700000000000009
:100D400030000000F0B40D460188090502D5214CA1
:100D50007C4402E01F4C7C440E34002100F1240648
:100D600008E002F00F071209E75D42EA03721B096F
:100D70007754491C52EA0307F3D102780023120783
:100D800004D5702D06D009B1022311342246F0BCDF
:100D900000F0A1B801231034F8E770B504460D4601
:100DA00021461068FFF742FC024629462046BDE86E
:100DB00070400023C6E7D21D22F00703D3E90023C9
:100DC000C0E70368126843F0200303600823C3618F
:100DD0000023B7E76452000010B5203AC0F00B8042
:100DE000B1E81850203AA0E81850B1E81850A0E82F
:100DF0001850BFF4F5AF5FEA027C24BFB1E8185089
:100E0000A0E8185044BF18C918C0BDE810405FEAF8
:100E1000827C24BF51F8043B40F8043B08BF704774
:100E2000D20728BF31F8023B48BF11F8012B28BF79
:100E300020F8023B48BF00F8012B7047004870477C
:100E40001002002000487047F001002030B5B0F1DA
:100E50000A024FEA900E71F100034EEA817EB0EB78
:100E60000E0061EB91014FEA101E4EEA017E10EB7D
:100E70000E0041EB11114FEA102E4EEA016E10EBFD
:100E80000E0041EB11214FEA104E4EEA014E10EBDD
:100E90000E0041EB1141401841F100014FEAD00032
:100EA00040EA41704FEAD10110EB80054FEA81041E
:100EB00044EA907444EB01046D1944EB0404521BA2
:100EC000A3414FF0000348BF0A3200D530BD401C9B
:100ED00041F1000130BD2DE9F0470D46994692469B
:100EE000044600F124080168880604D5E06921F071
:100EF0001001216000E00120A84201DD471B00E055
:100F00000027A1697A1902EB0900081AA06120786C
:100F1000C00602D42046FFF759FB002608E0D4E9BA
:100F200001211AF806009047206A401C761C2062B6
:100F30004E45F4DB2078C0060AD52046FFF746FB75
:100F400006E0D4E9012130209047206A401C20624D
:100F5000381EA7F10107F4DC07E0D4E9012118F8F5
:100F600005009047206A401C2062281EA5F101055B
:100F7000F3DC2046FFF740FB2078000602D5022074
:100F8000BDE8F0870120FBE72DE9F04F04460D4650
:100F9000D21D22F0070089B0D0E9009748463946B3
:100FA00003F00CF90246F80F01D02D2307E020686A
:100FB000810701D52B2302E0202101EAC0038DF82F
:100FC00020300BB1012000E00020032A824601D02E
:100FD000072A04DB2946204600F054F93FE1207837
:100FE000800601D40D2500E0E569C7F30A560D2DF2
:100FF00049DA00214FEA175B08464FF00000002F46
:1010000000F4400007DA00EB80004FF4400100EBF1
:10101000D07001EA60008115012901DD4FF0FF3138
:1010200000224FEA850CBCF1180F06D31346ACF131
:1010300018004FF08052C24003E04FF4801323FAAF
:101040000CF30CF10C0CBCF1200F04D3ACF1200C10
:1010500009FA0CF001E007FA0CF000294FF0004803
:1010600001DD18B90FE00ED140450CD319EB020990
:101070005F4121B9404502D19F4329EA0209BBEBF8
:10108000175F00D0761C2088000502D57B48784485
:1010900002E07A487844193808AA302302F80A3066
:1010A000037C0AF10101002E0AF1020A53546A4638
:1010B00002DC4FF0300101E04FF031014FF0010848
:1010C0008DF8001002D0A6F2FF3603E059EA47017E
:1010D00000D06B4E002D02DC2178090704D54FF0BB
:1010E00002082E218DF80110C44600210BE0C7F341
:1010F00003433F01C35C491C6D1E02F808300529FB
:1011000008F1010801DA002DF1DC00210CE000EB10
:101110001973491C1B786D1E082902F808304FEA24
:10112000091908F1010801DA002DF0DC21688B06AD
:1011300002D516E0A8F10108E04505DD02EB080341
:1011400013F8013C302BF5D0B8F1000F09DD02EBAC
:10115000080313F8013C2E2B03D1090701D4A8F191
:101160000108002D05DD3E2102F808106D1E08F172
:101170000108407C002E02F8080008F1010804DA9A
:101180002D20764202F8080002E02B2002F8080029
:101190000A214FF47A70864208F101080BDB96FBB6
:1011A000F0F3303302F8083096FBF0F308F1010851
:1011B00000FB136601E0642E0CDB642096FBF0F369
:1011C000303302F8083096FBF0F308F1010800FB19
:1011D000136601E00A2E06DB96FBF1F0303002F8D0
:1011E000080008F1010896FBF1F001FB10603030B7
:1011F00002F80800A16908F1010808EB050202EBFA
:101200000A00081AA0612078C00602D42046FFF721
:10121000DDF9216A08AE01EB0A00206204E0D4E99E
:10122000012116F8010B9047BAF1010AF7D2207894
:10123000C00602D52046FFF7C9F96E4609E016F848
:10124000010B3E280FD0D4E901219047206A401CB1
:101250002062B8F10108F2D22046FFF7CDF909B0BB
:101260000320BDE8F08F206A2844206203E0D4E91F
:101270000121302090476D1EEBD3F8E701500000AC
:1012800002FCFFFF2DE9F0411F46044603260168DA
:10129000072A01F4006004DB08B116A505E016A5D5
:1012A00003E008B115A500E015A521F010002060AD
:1012B000A069C01EA0610FB1401EA0612046FFF7CB
:1012C00085F94FB1D4E9012138469047206A401C86
:1012D0002062C01C206206E0206AFAE7D4E90121FE
:1012E00015F8010B9047761EF8D22046FFF784F9D7
:1012F000BDE8F0814E414E006E616E00494E4600E1
:10130000696E660010B5436913B1AFF3008001E068
:10131000FFF795F9012010BD127800F124010A7041
:1013200000224A700122EDE711684FF0FF32E9E731
:1013300010B5436913B1AFF3008001E0FFF72EFC55
:10134000012010BD128800F1240182840022C28491
:101350000122EDE711684FF0FF32E9E72DE9F04790
:10136000814616468AB0354878440DC88DE80D0090
:1013700032487844801C03AC0DC884E80D0041F667
:101380009B300844372190FBF1F290FBF1F5A5F179
:10139000800501FB12041B3C02D56442012000E0E1
:1013A0000020DFF898A080460027FA44AAF1BE0A80
:1013B0000EE0E0070AD03246684607EB47010123FA
:1013C0000AEB810100F030FB8DE8070064107F1C00
:1013D000002CEED1194F7F44AE3F19E0E80715D03D
:1013E00007EB04100DF1180A90E80E008AE80E00D1
:1013F000C068F04201D1981908903246012306A92D
:1014000003A800F011FB03AB83E807006D10641C18
:10141000002DE3D14FF0010332466946B8F1000FC9
:1014200003A802D000F0EBFA01E000F0FDFAC9E9F0
:101430000001C9F808200AB0BDE8F087B84D0000E7
:1014400070B516460C46054600F044F8036893F85C
:101450000101012806D0FF2C0FD8185D68B10120CA
:101460002C7070BDD3F807013246214603F20713F2
:1014700003442846BDE8704018474FF0FF3070BD68
:1014800000487047F00100207546FFF7F9FFAE46AF
:1014900005006946534620F00700854618B020B580
:1014A000FEF7D6FEBDE820404FF000064FF00007E3
:1014B0004FF000084FF0000B21F00701AC46ACE8FC
:1014C000C009ACE8C009ACE8C009ACE8C0098D4669
:1014D0007047000010B5FFF7B1FC001D10BD00BF44
:1014E0008132000010B50446AFF300802046BDE80D
:1014F0001040FEF798BE000001491820ABBEFEE781
:101500002600020070475FEA400C08BF91F0000F10
:101510004FEA8C234FEAC12243EA51514FEA1C5053
:1015200018BF00F5F0404FEA300018BF41F000410D
:101530005FEA6C5C00F02980BCF1FF3F08BF40F01F
:1015400080407047130C06BF12044FF0100C4FF090
:10155000000C130E04BF12020CF1080C130F04BF91
:1015600012010CF1040C930F04BF92000CF1020C59
:10157000D30F04BF52000CF1010C11464FF00002D2
:10158000A0F11F00A0EB0C00704711F0004F08BF46
:10159000704731F000413FF4D5AF0B0C06BF090492
:1015A0004FF0100C4FF0000C0B0E04BF09020CF1B1
:1015B000080C0B0F04BF09010CF1040C8B0F04BFC6
:1015C00089000CF1020CCB0F04BF49000CF1010C97
:1015D000CCF12003A0EB0C0022FA03F302FA0CF288
:1015E00041EA030100F10100704720F07F4C80EADE
:1015F000030023F07F47ACEB070303F57C5300F0B7
:10160000004003F1FF032DE980494FEA154B09B46F
:101610004FEA144325EA0B4E24EA03480FF204264E
:1016200006EB132749083E785FEA320203FB0667A0
:10163000C7F5000707FB06F64FEA54374FEAD646D0
:1016400006F1020607FB066CCCF1005C4FEA1C4772
:101650002CEA074C07FB06F40CFB06F504EB1546D9
:101660004FEA961634BF00204FF000404FEAD137C2
:1016700006FB07FC4FEA1C4C0CFB0BF7D21B03FBD1
:101680000CF761EB07010CFB0EF7B0EB074072EBB8
:1016900017420CFB08F734BFA2EB0742B2EB07423C
:1016A00061EB17414FEA0C444FEA910706FB07FC38
:1016B0004FEA1C4C0CFB0BF7B0EBC74072EB5732F8
:1016C00003FB0CF734BFA2EBC742B2EBC74261EB9E
:1016D00057310CFB0EF7B0EBC70072EB57720CFBE7
:1016E00008F734BFA2EBC702B2EBC70261EB577138
:1016F000039F4FEA816141EA921104EBCC044FEA67
:10170000D1374FEA826206FB07FC42EA90124FEAA9
:1017100080604FEA1C4C0CFB0BF7D21B03FB0CF751
:1017200061EB07010CFB0EF7B0EB074072EB1742C1
:101730000CFB08F734BFA2EB0742B2EB074261EBA8
:1017400017414FEA8C554FEA910704EB9C2406FBA6
:1017500007FC4FEA1C4C0CFB0BF7B0EBC74072EBDD
:10176000573203FB0CF734BFA2EBC742B2EBC742C0
:1017700061EB57310CFB0EF7B0EBC70072EB577201
:101780000CFB08F734BFA2EBC702B2EBC70261EB58
:10179000577115EB4C254FEA816141EA92114FEAEE
:1017A00082624FEAD13742EA901206FB07FC44F10D
:1017B00000044FEA80604FEA1C4C0CFB0BF7D21B75
:1017C00003FB0CF761EB07010CFB0EF7B0EB0740D6
:1017D00072EB17420CFB08F734BFA2EB0742B2EBE7
:1017E000074261EB174115EB1C154FEA813141EAC5
:1017F00092414FEA823242EA90424FEA80304FEA09
:101800000C7644F1000448EA03434EEA0B484FF0DB
:10181000000EB2EB080C71EB030724BF6246394699
:101820004EEB0E0E4FF0000B0018524149414BEBAE
:101830000B0BB2EB080C71EB03077BF1000B24BF21
:10184000624639464EEB0E0E4FF0000B0018524127
:1018500049414BEB0B0BB2EB080C71EB03077BF12F
:10186000000B24BF624639464EEB0E0E51EA0207CA
:1018700018BF46F0010616EB0E7655F1000254F142
:10188000000103D5BDE88901BDE80088BDE88901F4
:10189000BDE80048B619524141EB0101A3F1010333
:1018A000704780807F7E7D7C7B7A797877767675CD
:1018B0007473727171706F6E6E6D6C6C6B6A6A6945
:1018C0006868676666656464636362616160605FDF
:1018D0005F5E5E5D5D5C5C5B5B5A5A595958585758
:1018E00057565655555554545353525252515150C0
:1018F00050504F4F4F4E4E4D4D4D4C4C4C4B4B4B13
:101900004A4A4A4949494848484747474746464658
:101910004545454444444443434343424242424193
:101920004141002B9C4630D477002BD01CB54FEAA8
:10193000370703B44FF010004FF01001BAF1000F59
:1019400006D0BCF1000FDCBF40F0080040F00801F9
:101950004FF000000FBCBDE810400BF1010BBBF1D4
:10196000010F08BF5FEA170722BF12F1010211F150
:1019700001014FF0004143F1000300F0004043EA51
:1019800000007047F9D35708D0E746EA064613F13E
:10199000400F4FEA16461FDD13F1200FDFBF16433D
:1019A0000A46002120335B42BED0C3F1200746EA3D
:1019B000064602FA07F74FEA164646EA0706C3F15B
:1019C000200722FA03F201FA07F721FA03F14FF098
:1019D000000342EA0702A7E746EA020646EA06468D
:1019E0004FEA164646EA0106BCBF46EA0646360CF2
:1019F0004FF000034FF000024FF0000194E72DE993
:101A0000804C9A46934670B491E8380007C831EA92
:101A1000400C48BF34EA430C03D5FFF7E6FDFFF75F
:101A200080FFF0BCBDE8008C2DE9804C9A469346BF
:101A300070B491E8380007C810F0804F08BF13F069
:101A4000804F03D100F005F8FFF76BFFF0BCBDE855
:101A5000008C20F07F4780EA030023F07F4C07EBE7
:101A60000C03A3F57C5300F00040A3F1FE0392F0B9
:101A7000000F00F0B38095F0000F00F077802DE9A3
:101A800001494FEA11404FEA144621EA004800FBA1
:101A900006FC24EA064708FB06F607FB08F800FBED
:101AA00007F718EB06484CEB164C4FEA124B18EBB5
:101AB00007484FEA15464CEB174022EA0B4E0BFB4A
:101AC00006FC25EA06470EFB06F607FB0EFE0BFB9F
:101AD00007F71EEB064E4CEB164C4FF000061EEBC4
:101AE000074E4CEB174B18EB0B0840F1000018EBBE
:101AF0000E0B58EB000840F100008F1A4FF0000168
:101B00003CBFC943661B14BFB5EB040C00213CBFAE
:101B1000C943F61B4FEA17444EEA8E0E27EA0445E6
:101B20004FEA1C4704FB07622CEA074C05FB07F74A
:101B30000CFB05F604FB0CFC16EB074642EB1742C8
:101B400016EB0C4642EB1C421BEB060658EB02025E
:101B5000414146EA9E0601D5BDE80189B6195241C8
:101B600041EB0101A3F10103BDE801894FEA1445EE
:101B70004FEA114724EA054621EA074C05FB07F422
:101B800006FB07F70CFB06F105FB0CFC11EB07410C
:101B900044EB17444FEA124711EB0C4144EB1C4451
:101BA00022EA074C05FB07F206FB07F70CFB06F6DB
:101BB00005FB0CFC16EB074642EB174216EB0C46F6
:101BC00042EB1C456A1854F1000148BF7047B61932
:101BD000524141EB0101A3F10103704795F0000F61
:101BE00037D04FEA11424FEA144721EA024624EA6D
:101BF000074C02FB07F106FB07F70CFB06F402FBA0
:101C00000CFC14EB074441EB17414FEA154714EB6A
:101C10000C4441EB1C4125EA074C02FB07F506FB8F
:101C200007F70CFB06F602FB0CFC16EB074645EB30
:101C3000174516EB0C4645EB1C42121951F10001F9
:101C400048BF7047B619524141EB0101A3F10103AE
:101C500070474FEA14454FEA114724EA054621EA46
:101C6000074C05FB07F106FB07F70CFB06F24FF0EC
:101C7000000605FB0CFC12EB074241EB174112EB8F
:101C80000C4251EB1C4148BF7047921841EB0101D7
:101C9000A3F101037047FEE710B54FF00074204632
:101CA00000F0A8F8002809D0204600F00DF8012126
:101CB000034800F098FA03490320487010BD000063
:101CC0000054004038000020C10002D502490860DD
:101CD0007047024948607047040402400000024017
:101CE000002904D0016841F00101016070470168DA
:101CF0004FF6FE72114001607047000001684FF618
:101D0000FE72114001600021016041608160C1608C
:101D10003649364A0839904204D1486840F00F00ED
:101D200048607047314A1432904204D1486840F00C
:101D3000F000486070472D4A2832904204D148682C
:101D400040F4706048607047284A3C32904204D1A9
:101D5000486840F4704048607047244A50329042CE
:101D600004D1486840F47020486070471F4A6432CC
:101D7000904204D1486840F47000486070471B4AA4
:101D80007832904204D1486840F0706048607047F3
:101D9000174A111F904204D1086840F00F000860F4
:101DA0007047134A1432904204D1086840F0F000A2
:101DB000086070470E4A2832904204D1086840F407
:101DC0007060086070470A4A3C32904204D108684B
:101DD00040F4704008607047054A50329042FAD192
:101DE000086840F470200860704700000800024056
:101DF0000804024002460020D10002D504490968C7
:101E000001E004490968114200D001207047000038
:101E10000004024000000240002A03D002680A4386
:101E20000260704702688A430260704730B50268FA
:101E300047F6F0739A430C6A8B682343D1E9044553
:101E40002C4323438C692343CC6923434C6A2343AB
:101E50008C6A234313430360CA6842600A68826045
:101E60004968C16030BD41607047704700B50246A7
:101E70004FF47A7302E0184600F004F8521E501C2A
:101E8000F9D100BD00EBC000C1004FF0E02041617E
:101E900000218161052101610169C903FCD504218B
:101EA0000161704770B54FF08045284601F06CFE27
:101EB00004B20021284601F06AFF204670BD0000F0
:101EC00070B588B00121084601F040FA01210420D4
:101ED00001F04AFA48208DF81F00C020ADF81C0020
:101EE00003208DF81E0007A91E4800F09FF800246B
:101EF000ADF81640ADF812404FF6FF70ADF8140083
:101F0000ADF810408DF818404FF0804604A93046D7
:101F100001F068FF01A801F08BFEADF804400F2529
:101F2000ADF80C50ADF8064001A9304601F03AFE7C
:101F300001A801F07DFE0421ADF80410ADF80C50AD
:101F4000ADF8064001A9304601F02CFE00231A46E8
:101F50000321304601F0FFFD0121304601F0E1FD93
:101F600008B070BD0008014070B5054D284601F06D
:101F70000BFE04B20021284601F009FF204670BD87
:101F80000004004070B588B00121022001F0DEF9A4
:101F90000121042001F0E8F948208DF81F000320FA
:101FA000ADF81C008DF81E0007A91E4800F03EF891
:101FB0000024ADF81640ADF812404FF6FF70ADF8B2
:101FC0001400ADF810408DF81840174E04A93046A3
:101FD00001F008FF01A801F02BFEADF804400F2529
:101FE000ADF80C50ADF8064001A9304601F0DAFD1D
:101FF00001A801F01DFE0421ADF80410ADF80C504D
:10200000ADF8064001A9304601F0CCFD00231A4688
:102010000321304601F09FFD0121304601F081FD92
:1020200008B070BD00080140000400402DE9F041F7
:102030000022CC7804F00F03E40601D58C7823430A
:102040000C784FF00F0714F0FF0F4FF0010C1CD06D
:1020500005680CFA02F40E882640A64211D19600BB
:1020600007FA06F825EA080503FA06F848EA05051E
:10207000CE78282E02D0482E02D002E0446100E043
:102080000461521C082AE4D305600A88FF2A1ED97D
:102090004568002202F108060CFA06F40E88264074
:1020A000A64210D1960007FA06F825EA080503FAB9
:1020B00006F848EA0505CE78282E00D14461CE788E
:1020C000482E00D10461521C082AE3D34560BDE8C4
:1020D000F0810000F0B5154C002801DAE36900E05A
:1020E0006368C0F30346420D120185B2C0F3015785
:1020F0009540032F07D0C2020CD50322B240934370
:1021000043F0706209E023F07062636823F070634B
:10211000636002E0AB4343F0706201B12A430028E0
:1021200001DAE261F0BD6260F0BD00000000014034
:1021300041617047016170474FF6FF7101800221D4
:1021400081700421C1707047002A01D0016170477D
:1021500041617047FEE7002904D0018841F48061A5
:1021600001807047018821F4806101807047034637
:1021700000209A8A1B8B1B041A4322F07F42914352
:1021800000D101207047002904D0018841F00101ED
:1021900001807047018821F001010180704700290A
:1021A00004D0818841F4006181807047818821F4E6
:1021B000006181807047002904D0818841F48051FA
:1021C00081807047818821F4805181807047002987
:1021D00004D0018841F4807101807047018821F4A6
:1021E000807101807047002904D0018841F400719A
:1021F00001807047018821F40071018070470CB59F
:102200000246002000920A0F019221F07F41019ABC
:10221000002A03D0009A1432009203E0090C009ABD
:1022200018320092009A12680A4200D001200CBDB8
:1022300070B586B004460D46A08820F03F0601A880
:1022400001F0A0F803982849B0FBF1F189B20E43E0
:10225000A680228822F001022280244B2A689A421A
:1022600009D85200B0FBF2F080B2042800D204205A
:10227000491C218423E0EB88A3F53F46FF3E0BD0A9
:1022800002EBC20303EB0212B0FBF2F080B240F4A7
:102290008040020506D007E002EB4202B0FBF2F0FC
:1022A00080B2F6E740F0010040F400404FF496722F
:1022B00051434FF47A72B1FBF2F1491C2184A0839F
:1022C000208840F00100208020884FF6F53108403A
:1022D000A9886A89114301432180A8892989084373
:1022E000208106B070BD000040420F00A0860100B2
:1022F000008AC0B27047002A02D041F0010101E01B
:1023000001F0FE0101827047018270472DE9F05F04
:102310000446B4F9080003F075F9444E314603F061
:1023200073F80546B4F90A0003F06CF9314603F07E
:102330006BF806463E4F2846F968884603F07AF95E
:10234000796802F0FFFF78604146304603F072F989
:10235000B96802F0F7FFB860B4F9040002F098FC25
:1023600005460E46B4F9020002F092FC2A463346B6
:1023700002F0B2F8DFF8BC9000224B4602F0DCFC21
:10238000DFF8B4A0DFF8B4B052465B4602F0ECFAD6
:1023900002F0FCF98046B4F90210B4F90400494394
:1023A00000FB001002F074FC02F09EF90546B4F93F
:1023B00000000E46404202F06BFC2A46334602F013
:1023C0008BF800224B4602F0B7FC52465B4602F007
:1023D000CBFA02F0DBF90546DFF864904046494647
:1023E00003F028F9DFF85C8006464146786803F080
:1023F00021F9314602F0A6FF064678604946284694
:1024000003F018F905464146B86803F013F9294668
:1024100002F098FF0546B860304603F0B7F8208117
:10242000284603F0B3F86081BDE8F09F00008342C6
:102430003800002000806640182D4454FB210940DC
:102440000AD7A33C48E17A3F30B58DB00121084658
:1024500000F06EFF184D2846FFF750FC0E20059047
:10246000002404940C94154803900994802007904C
:102470000A94134802900894069440140B9002A901
:102480002846FFF7D3FC11208DF8040001208DF8B9
:1024900007008DF805408DF8064001A800F088FA85
:1024A000012202212846FFF7B7FC05480121103818
:1024B000FFF775FE0DB030BD80000240D80000204F
:1024C0001054004070B5294C607800284CD1012090
:1024D0006070274D460431462846FFF790FE0028DD
:1024E000F9D101212846FFF772FE224E28463146D7
:1024F00000F022F90022D0212846FFF7FCFE1E49F9
:10250000284600F019F93B212846FFF7FDFE1A493D
:102510002846891C00F010F901212846FFF757FED4
:102520003146284600F008F90122D0212846FFF75D
:10253000E2FE711C284600F0FFF8104E00213046E4
:10254000FFF7CEFB0E213046FFF78DFC0121284618
:10255000FFF731FE01213046FFF7C2FB012128467B
:10256000FFF71DFE0320607070BD000038000020E2
:102570000054004001000300820007008000024078
:1025800010B586B00121480500F0E0FE01210820C9
:1025900000F0EAFE1C208DF81700C020ADF81400F2
:1025A00003208DF8160005A91A48FFF73FFD4FF4E8
:1025B0008060ADF80E000001ADF8100016490191E1
:1025C000ADF80A000020ADF80800ADF80C00134C7F
:1025D00001A92046FFF72CFE01212046FFF7D3FD7D
:1025E0006FF07F016B2000F0B7F86420FFF73EFC2E
:1025F00000216B2000F0B0F808211B2000F0ACF89F
:1026000008211C2000F0A8F80721192000F0A4F8E8
:1026100006B010BD000C0140801A060000540040B6
:102620002DE9FF410546414F01213846FFF7CFFD17
:102630003F4C3846214600F07FF80022D021384632
:10264000FFF759FE3B49384600F076F83B21384603
:10265000FFF75AFE37493846891C00F06DF8012112
:102660003846FFF7B4FD2146384600F065F80122F0
:10267000D0213846FFF73FFE611C384600F05CF879
:1026800001213846FFF767FD0024DFF8A4806E467D
:1026900008F13F084146384600F04EF83846FFF74B
:1026A00027FE3055641CE4B20D2CF3D300213846CC
:1026B000FFF751FD01213846FFF795FD41463846A9
:1026C00000F03AF83846FFF713FE9DF801109DF828
:1026D000002041EA022129809DF803109DF8022084
:1026E00041EA022169809DF805109DF8042041EA25
:1026F0000221A9809DF807109DF8062041EA0221D9
:10270000E9809DF809109DF8082041EA02212981FD
:102710009DF80B109DF80A2041EA022169819DF87D
:102720000C1040EA0120A881BDE8FF810054004060
:10273000010003008200070070B505460E4642F214
:10274000107402E0641E002C05D031462846FFF7C5
:102750000EFD0128F6D170BD70B506460C46154D2C
:1027600001212846FFF733FD13492846FFF7E4FF10
:102770000022D0212846FFF7BEFD10492846FFF76A
:10278000DBFF31462846FFF7BFFD0C492846891E6E
:10279000FFF7D2FFE1B22846FFF7B6FD074928460A
:1027A000891CFFF7C9FF2846BDE870400121FFF7EB
:1027B0001ABD000000540040010003008200070021
:1027C0002DE9FE4300F0D8F8FFF77AFBFFF7DAFBBC
:1027D000FFF7D6FE00F02EFE00F0E8F901F090FBC6
:1027E000FFF732FE0E4E0224CDE901460D4FDFF811
:1027F0003880DFF8389001253B46424649460C4870
:10280000009500F007FCCDE9014609483B464246E9
:1028100049463430009500F0FDFBBDE8FE83000022
:102820006666663FCDCCCC3D0AD7A33C295C8F3D84
:1028300070000020FEE700002DE9F04104464FF44F
:102840008046164D7700002C0CDD31462846FFF7F8
:1028500071FC39462846FFF76BFCA0B2BDE8F04199
:1028600000F004BD0DDA39462846FFF763FC314617
:102870002846FFF75DFC6042BDE8F04180B200F001
:10288000F5BC31462846FFF753FC39462846FFF78A
:102890004FFCA0B2BDE8F04100F0E8BC000C0140E4
:1028A0002DE9F0410446174D4FF40056AF14002CAB
:1028B0000CDD31462846FFF73DFC39462846FFF738
:1028C00037FCA0B2BDE8F04100F0CABC0DDA3946D1
:1028D0002846FFF72FFC31462846FFF729FC6042C7
:1028E000BDE8F04180B200F0BBBC31462846FFF79E
:1028F0001FFC39462846FFF71BFCA0B2BDE8F0419B
:1029000000F0AEBC000C014070B5FFF72DFB02F0EB
:1029100079FE174CA16902F015FDA061FFF7C2FA1C
:1029200002F070FE04F13406B16902F00BFDB061F3
:10293000104DA1692961E861E8686061A86970616A
:10294000204600F079FB304600F076FBE06902F0AB
:102950001DFE00B2FFF770FFF06902F017FE00B233
:10296000FFF79EFFE0696861F069286270BD0000B2
:10297000700000201400002008B50121082000F09C
:10298000F3FC10208DF803004FF47040ADF8000008
:1029900003208DF8020069460348FFF747FB00F06B
:1029A0006BFC01F067F808BD000C014070470000A7
:1029B00070B50F23C27801260178002A1ED0144A70
:1029C000126802F4E062C2F5E062120AC2F1040485
:1029D000D3404578A54082781A402A43120101F17C
:1029E000E02181F80024007800F01F018E404009AA
:1029F000800000F1E020C0F8006170BD01F01F0010
:102A000086404809800000F1E020C0F8806170BD78
:102A10000CED00E0024908430249086070470000DD
:102A20000000FA050CED00E070B5002500212846F5
:102A300000F02CFA0024002000F0DBFA641CE4B261
:102A4000862CF8D36D1CEDB2082DEFD370BD70B598
:102A50000025461E05EB4600C0B2002100F016FA24
:102A60000024002000F0C5FA641CE4B2802CF8D3E6
:102A70006D1CEDB2022DEDD370BD0000F8B5012143
:102A8000042000F071FC0121084600F06DFC0121DA
:102A90001148FFF71FFB14208DF8030003208DF869
:102AA00002004FF48054ADF800400C4E69463046A9
:102AB000FFF7BCFAE500ADF8005069463046FFF775
:102AC000B5FA012221463046FFF73EFB0122294696
:102AD0003046FFF739FBF8BD000230000008014026
:102AE0002DE9F04707460024154D4FF080084FF4BC
:102AF0000049AE1428FA04F0384201D0012200E067
:102B0000002249462846FFF71FFB0122314628468E
:102B1000FFF71AFB002231462846FFF715FB641C1D
:102B2000E4B2082CE6D3012231462846FFF70CFB1D
:102B300031462846BDE8F0470022FFF705BB0000FC
:102B40000008014070B501220B4DD40321462846F0
:102B5000FFF7FAFA0122160331462846FFF7F4FA86
:102B6000002221462846FFF7EFFA31462846BDE805
:102B700070400022FFF7E8BA0008014070B50A4D26
:102B80004FF40044002221462846FFF7DDFA0122D7
:102B900011032846FFF7D8FA21462846BDE87040C1
:102BA0000122FFF7D1BA00000008014010B5002152
:102BB0004FF47A720020401C9042FCD3491C914291
:102BC000F8D3FFF75BFFAE2000F002FAD52000F04B
:102BD000FFF9802000F0FCF9A82000F0F9F93F206F
:102BE00000F0F6F9D32000F0F3F9002000F0F0F93E
:102BF000402000F0EDF9A12000F0EAF9C82000F033
:102C0000E7F9DA2000F0E4F9122000F0E1F9812080
:102C100000F0DEF9CF2000F0DBF9D92000F0D8F980
:102C2000F12000F0D5F9DB2000F0D2F9302000F0DF
:102C3000CFF9A42000F0CCF9A62000F0C9F98D202E
:102C400000F0C6F9142000F0C3F9AF2000F0C0F97D
:102C5000BDE81040FFF7E8BE10B50C4C04230C2172
:102C6000B4F90820022000F06FF90423B4F90A2017
:102C70001946032000F068F9B4F90C2004230C2154
:102C8000BDE81040032000F05FB90000D80000202C
:102C900010B5FFF7C9FE01210FA2084600F085F923
:102CA0000EA20921012000F080F90DA201210220CD
:102CB00000F07BF90BA20921022000F076F90AA2AC
:102CC0000121032000F071F90921BDE8104007A29D
:102CD000032000F06AB9000041583A0041593A0017
:102CE000415A3A0047583A0047593A00475A3A0081
:102CF00010B51C4C606902F065FC024604231946BD
:102D0000012000F001F9206A02F05CFC0246042375
:102D10000C21012000F0F8F8E06802F053FC0246B4
:102D200004231946022000F0EFF8A06902F04AFCE3
:102D3000024604230C21022000F0E6F8206902F08C
:102D400041FC024604231946032000F0DDF8E06947
:102D500002F038FC024604230C21BDE81040032099
:102D600000F0D2B81400002010B5FFF75DFE01217D
:102D70000FA2084600F019F90EA20921012000F067
:102D800014F90DA20121022000F00FF90BA2092174
:102D9000022000F00AF90AA20121032000F005F93F
:102DA0000921BDE8104007A2032000F0FEB8000092
:102DB0004F413A004F423A0054413A0054423A00DF
:102DC00041413A0041423A000346012000E05843A5
:102DD000491E4A1CFBD170472DE9F04186B0DFF84F
:102DE0004880D8F8140002F081FA04460D46D8F85D
:102DF000100002F07BFA06460F46D8F80C0002F0ED
:102E000075FA8DE8C30009A2CDE9044520210C48DC
:102E1000FDF742FA202800D31F2006B081B2BDE89A
:102E2000F041074801F096B814000020252E3266C4
:102E30002C252E32662C252E32660D0A000000004D
:102E40005000002010B505A1094800F0BDFBBDE809
:102E5000104008A10C4800F0B7BB0000B4AEBFDAC8
:102E600032B3F5CABCBBAFB3C9B9A6A3A10A00006F
:102E700000440040B4AEBFDA33B3F5CABCBBAFB355
:102E8000C9B9A6A3A10A00000048004010B50C462D
:102E900040F0B00000F09CF8102040EA141000F060
:102EA00097F804F00F00BDE8104000F091B8000062
:102EB0002DE9F0411546491E461ECF007006F9B2B5
:102EC000000EFFF7E3FF00240E48203D00EB051540
:102ED000285D00F08EF8641CE4B2082CF8D30120C1
:102EE00000EB4600F9B2C0B2FFF7D0FF002428196A
:102EF000007A00F07EF8641CE4B2082CF7D3BDE839
:102F0000F0810000AE5900082DE9F04781460F46D8
:102F100090461E4600240A2512E0311B491E0A2055
:102F2000FFF752FFB8FBF0F2B2FBF5F005FB102201
:102F30003819C1B230324846FFF7BAFF641CE4B218
:102F4000B442EAD3BDE8F0872DE9F04782468946CE
:102F500017469846002F05DB2B2249465046FFF7BF
:102F6000A7FF05E02D2249465046FFF7A1FF7F420B
:102F700000240A2515E0A8EB0401491E0A20FFF7EA
:102F800023FFB7FBF0F6B6FBF5F005FB106209EB8B
:102F90000400401CC1B230325046FFF789FF641C68
:102FA000E4B24445E7D3BDE8F0872DE9F041074698
:102FB0000D461646002406E02819C1B23846FFF730
:102FC00077FF641CE4B2325D002AF5D1BDE8F081E0
:102FD00010B50446FFF7B6FD7820FFF781FD00200D
:102FE000FFF77EFD2046FFF77BFDBDE81040FFF7B1
:102FF000C5BD10B50446FFF7A5FD7820FFF770FDAD
:103000004020FFF76DFD2046FFF76AFDBDE8104048
:10301000FFF7B4BDF0B404AC70CC016042608360D3
:10302000047345730661002141618161C161F0BC97
:1030300014212030FDF755BA2DE9F047044600254C
:10304000206A6062D4E9050102F0C0FB206202F050
:103050004DF921F0004100227A4B01F031FE02D2FD
:10306000E561BDE8F087207BF8B1012802D0022895
:103070003BD12CE0256A284602F038F9724E21F047
:1030800000410022334601F0B3FB02460B4600200C
:10309000314601F069FC01F079FB294602F0CAFAD9
:1030A000A16A02F04FF9A0621FE0206A02F01EF947
:1030B00021F000410022654B01F002FE05D2216A99
:1030C000A06A02F03FF9A0620FE0A5620DE0216A5C
:1030D000A06A02F037F9A0625D49884200DDA16272
:1030E0005C48A16A814200D9A062607B40B14FF088
:1030F0007E57012821D002284BD003281CD178E02C
:10310000E16AA06902F062FB0146A06880F000401D
:1031100002F090FA05462063A16A606802F08AFA1C
:103120000646216A206802F085FA314602F00AF963
:10313000294602F007F9E06174E02669216B304608
:1031400002F078FAD4E908518046284602F03EFBA6
:1031500081463146384602F039FBA16802F06AFA2E
:10316000494602F067FA414602F0ECF80646206351
:10317000A16A606802F05EFA07462946206802F0FC
:1031800059FA394602F0DEF8314602F0DBF8E06128
:1031900048E0A669E16A304602F018FB0146A068E3
:1031A00080F0004002F046FA0546E6622669216B8F
:1031B000304602F03FFA80463146384602F006FBC0
:1031C000294602F037FA414602F0BCF80546206372
:1031D000A16A606802F02EFA0646216A206802F0B1
:1031E00029FA314602F0AEF8294602F0ABF8E06168
:1031F00018E0D4E90861304602F0E8FAA16802F06C
:1032000019FA0546A16A606802F014FA07463146C9
:10321000206802F00FFA394602F094F8294602F0CD
:1032200091F8E0610020E16902F08CF8E0610A4960
:10323000884200DDE1610948E16981427FF611AF12
:10324000E0610EE7000034400000F03F000049401C
:103250000000FA430000FAC30000C8420000C8C2E0
:103260000146014800F08EBD002C01400146014896
:1032700000F08ABD002C014030B589B00121C802A0
:1032800000F072F80121042000F06EF818208DF88B
:1032900023004FF41060ADF8200003208DF82200C9
:1032A00008A92048FEF7C2FE1F4D284600F0D2FCB8
:1032B0000024ADF81A40ADF816406321ADF818109F
:1032C00040F2CF20ADF814008DF81C4005A9284627
:1032D00000F088FD01A800F04BFD6020ADF804006F
:1032E000ADF80C400120ADF80600ADF80A4001A988
:1032F000284600F0B5FC01A9284600F0FBFC082197
:10330000284600F0F1FC0821284600F027FD0121A5
:10331000284600F006FC0121284600F00EFC09B00A
:1033200030BD000000080140002C01407047000043
:10333000054A002903D05169014351617047516921
:10334000814351617047000000100240054A002986
:1033500003D0D1690143D1617047D1698143D16103
:103360007047000000100240054A002903D091690F
:1033700001439161704791698143916170470000F9
:103380000010024010B5264A516801F00C01254B8F
:10339000002927D0042927D0082927D003605168A5
:1033A00001F0F0010909204B5C5C0168E1404160DB
:1033B000546804F4E064240A1C5D21FA04F4846077
:1033C000546804F46054E40A1B5DD940C16052683B
:1033D00002F44042920B144B1B1F9A5CB1FBF2F1BA
:1033E000016110BD0360DAE70360D8E7516801F4BA
:1033F0007011536803F48033022404EB914133B11C
:1034000053689B0307D5094B59430160C7E7074B36
:1034100059430160C3E7034B59430160BFE7000014
:103420000010024000127A000400002000093D0054
:10343000704700002DE9F04786B04FF4A060FFF719
:10344000E9FA01214804FFF781FF01210420FFF779
:103450008BFF05A8FEF770FE18278DF8177003255F
:103460008DF816500420ADF81400534C05A92046E1
:10347000FEF7DCFD4FF048088DF817800821ADF805
:1034800014108DF8165005A92046FEF7CFFD01A8AF
:1034900000F088FE4FF4165001900024ADF808406B
:1034A000ADF80A40ADF80C404FF00C09ADF80E90A5
:1034B000ADF81040414E01A9304600F00DFE01214B
:1034C000304600F0B1FD40F2255A01225146304607
:1034D00000F0E7FD26208DF8000001268DF803603E
:1034E0008DF801408DF802406846FFF761FA01212E
:1034F0008804FFF72BFF01210820FFF735FF05A8FF
:10350000FEF71AFE8DF817708DF81650B002ADF860
:1035100014002B4F05A93846FEF788FD8DF817805B
:10352000F002ADF814008DF8165005A93846FEF7E4
:103530007DFD05A8FEF700FE10208DF817008DF820
:103540001650ADF8145005A93846FEF76FFD01215D
:103550003846FEF7EFFD02213846FEF7E9FD01A8E7
:1035600000F020FE4FF4E1300190ADF80840ADF8D6
:103570000A40ADF80C40ADF80E90ADF81040114D7A
:1035800001A9284600F0A8FD0121284600F04CFDC5
:1035900001225146284600F084FD27208DF80000C6
:1035A0008DF803608DF801408DF802406846FFF702
:1035B000FFF906B0BDE8F087000801400044004074
:1035C000000C0140004800400FB410B59AB004460A
:1035D0001EAA01A81D99FCF74DFE214601A800F086
:1035E00011F81AB010BC5DF814FB10B50C4601467A
:1035F000204600F0D3FD8021204600F02BFD00285E
:10360000F9D010BD70B505460E46002404E03146E1
:10361000FFF7EBFF641CE4B2285D0028F7D170BD12
:103620002DE9F041384C00252079002803D0257180
:103630000420FFF70CFA354F3878002861D00420B9
:10364000FFF705FA324A01210420FFF7AEFC31A151
:103650002F48FCF76DFF324E002826D031A12C48B0
:10366000FCF766FF002826D032A12948FCF760FF4E
:10367000002826D032A12648FCF75AFF38B334A1DF
:103680002348FCF755FF40B335A12148FCF750FF14
:1036900048B337A11E48FCF74BFF012648B336A1BB
:1036A0001B48FCF745FF40B32AE03146E06801F0D3
:1036B00049FEE06024E03146E06802F087F8E0600F
:1036C0001EE03146A06901F03DFEA06118E03146E0
:1036D000A06902F07BF8A06112E02949E06801F0DE
:1036E00031FEE0600CE02749E06801F02BFEE0606D
:1036F00006E066702670A57002E0E6702570A67080
:103700003D70BDE8F0810000140000204C00002056
:103710002601002054617267657441206164640071
:103720000000204154617267657441206C6F7765B9
:103730007200000054617267657442206164640025
:1037400054617267657442206C6F77657200000087
:103750004D6F746F724120666F7277617264000002
:103760004D6F746F7241206261636B7761726400A8
:1037700070616765310000007061676532000000AC
:103780000000A5440000A5C4AFF300800CB50022E2
:10379000019200922748016841F4803101604FF4A2
:1037A000A063016801F4003100910199491C019165
:1037B000009911B901999942F3D10168890302D5A1
:1037C0000121009100E000920099012930D11A49AD
:1037D0000A6842F010020A600A6822F003020A60D6
:1037E0000A6842F002020A60416841604168416033
:1037F000416841F480614160416821F47C1141607D
:10380000416841F4E8114160016841F08071016054
:1038100001688901FCD5416821F0030141604168DC
:1038200041F0020141604168C1F381010229FAD1EE
:103830000CBD000000100240002002407047000054
:1038400010B50F48016841F00101016041680D4A5F
:103850001140416001680C4A11400160016821F487
:1038600080210160416821F4FE0141604FF41F0195
:103870008160FFF789FF05494FF00060086010BDC7
:10388000001002400000FFF8FFFFF6FE08ED00E028
:1038900070B5048C24F001040484058B048C25F09D
:1038A000F3054FF6FF7606EA031313432B43104A42
:1038B00090420ED00F4A90420BD0B0F1804F08D00A
:1038C0000D4A904205D00D4A904202D00C4A9042D7
:1038D00005D124F002020A4342F0010104E024F081
:1038E0000A020A4342F001010383018470BD000013
:1038F000002C01400034014000040040000800405A
:10390000000C0040F0B5048C24F010040484068BF5
:10391000048C4FF6FF7505EA011726F4734605EA95
:103920000333334305EA02221A43104B98420ED068
:103930000F4B98420BD0B0F1804F08D00D4B9842FE
:1039400005D00D4B984202D00C4B984205D124F083
:103950002001394341F0100104E024F0A0030B439F
:1039600043F0100102830184F0BD0000002C0140EF
:10397000003401400004004000080040000C0040FA
:10398000F0B5048C24F480740484858B048C4FF689
:10399000FF7707EA012625F0F30507EA031313432F
:1039A0002B43104A90420ED00F4A90420BD0B0F1F8
:1039B000804F08D00D4A904205D00D4A904202D067
:1039C0000C4A904205D124F40071314341F48071D6
:1039D00004E024F420620A4342F48071838301846A
:1039E000F0BD0000002C0140003401400004004004
:1039F00000080040000C0040F0B5048C24F4805412
:103A00000484868B048C4FF6FF7505EA013726F493
:103A1000734605EA0222324305EA03331343104A90
:103A200090420ED00F4A90420BD0B0F1804F08D098
:103A30000D4A904205D00D4A904202D00C4A904265
:103A400005D124F40051394341F4805104E024F4B9
:103A500002420A4342F4805183830184F0BD000096
:103A6000002C0140003401400004004000080040E8
:103A7000000C004008B5012211460B4800F0E0F8A8
:103A80004FF4A060FEF7C6FF19208DF8000001205A
:103A90008DF8030002218DF801108DF802006846B0
:103AA000FEF786FF08BD0000002C014070B5184EDF
:103AB0000121304600F06AF8012828D1154C002574
:103AC000E088401C81B2E180032906D1E5801248DC
:103AD000FEF7A6FD1048FEF719FC2089401C81B2B4
:103AE00021811E2902D12581FEF70EFF6089401C2D
:103AF00081B2A1F530606181B83802D165810120C1
:103B000020713046BDE87040012100F007B870BD5B
:103B1000002C014014000020D8000020C94301827D
:103B20007047002904D0018841F0010101807047ED
:103B3000018821F0010101807047002905D030F88B
:103B4000441F41F400410180704730F8441FC1F325
:103B50000E010180704770B50589048B068C25F035
:103B600007050D434FF6FC410C4040F201110C4398
:103B700026F022064FF6FF7101EA0311114331438B
:103B800005810483018470BD808C7047024600204B
:103B9000138A0B4092890A40002B02D0002A00D0E1
:103BA0000120704770B505460C461D48854209D076
:103BB0001C48854206D0B5F1804F03D01A48854293
:103BC00000D01A4820886188A288238960B104281F
:103BD00013D008281AD02846FFF70EFFE1882846A0
:103BE000BDE8704000F0F1B82846FFF751FEE188CB
:103BF0002846BDE8704000F0CCB82846FFF782FEAA
:103C0000E1882846BDE8704000F0CBB82846FFF7B1
:103C1000B7FEE1882846BDE8704000F0CEB800004D
:103C2000002C014000340140000400400008004026
:103C300000210180418001228280C1800181704782
:103C4000002A03D082890A438281704782898A438D
:103C500082817047018921F00701018170470000CE
:103C600030B5028C22F001020284028C8388048B1E
:103C700024F0700424F003050C882C4322F0020287
:103C80000D8915434A882A43124DA8420BD0124D84
:103C9000A84208D0114DA84205D0114DA84202D02B
:103CA000104DA8420FD122F008054A892A4322F07C
:103CB00004058A882A4323F4807323F400738D89D2
:103CC0001D43CB892B4383800483C988818602846A
:103CD00030BD0000002C0140003401400040014094
:103CE0000044014000480140028B22F008020A43D0
:103CF0000283704770B5028C22F480520284058CD6
:103D00008288838B23F4E04323F440760C884FF6BB
:103D1000FF7303EA0424344325F400550E8903EAB3
:103D200006362E434D8803EA05353543094EB04229
:103D300002D0094EB04205D122F480468A8903EAB6
:103D40008212324382808483C988A0F8401005849F
:103D500070BD0000002C014000340140828B22F431
:103D600000624FF6FF7303EA01211143818370471C
:103D70000021018041808180C18001814181818158
:103D8000C181704781867047A0F8401070478184D8
:103D90007047028B22F00C020283028B0A430283DB
:103DA0007047028B22F440620283028B4FF6FF734E
:103DB00003EA01210A4302837047828B22F00C023E
:103DC0008283828B0A4382837047828B22F4406213
:103DD0008283828B4FF6FF7303EA01210A438283B9
:103DE0007047000030B502881B4C1C4DA0420DD01E
:103DF000A8420BD0B0F1804F08D0194B984205D0A3
:103E0000184B984202D0184B984203D122F070030D
:103E10004A881A43154B984206D0154B984203D056
:103E200022F44073CA881A4302808A8882850A88ED
:103E30000285A0420AD0A84208D00E4A904205D07E
:103E40000D4A904202D00D4A904201D1097A018672
:103E50000121818230BD0000002C0140003401406E
:103E60000004004000080040000C0040001000402A
:103E7000001400400040014000440140004801405F
:103E80002DE9F0411B4D40F225563146284600F001
:103E9000E8F801282BD1284600F07CF9C2B2164C74
:103EA0000020012123782BB1144F012B09D0022BC4
:103EB00011D016E0402A14D1227992B92170607095
:103EC0000FE00D2A04D06378FA545B1C637008E09D
:103ED0000220207005E00A2A03D120706278B854CD
:103EE000217131462846BDE8F04100F095B8BDE8A3
:103EF000F08100000044004048000020260100201E
:103F000000B58BB001210846FFF712FA0E48009069
:103F10000E48019010200290402003900020049051
:103F200080210591069007900890490109910A9017
:103F300069460748FDF77AFF034801228021001FE8
:103F400000F07EF80BB000BD04480040E600002001
:103F50001C00024070B5402900D940210C460146A2
:103F600022460B48FCF778FA0A4D00212846FDF757
:103F7000B7FE21462846FDF776FF064904481C395E
:103F800088622846BDE870400121FDF7A9BE000007
:103F9000E60000201C0002402DE9F0411B4D40F2DC
:103FA00025563146284600F05CF801282BD12846DA
:103FB00000F0F0F8C2B2164C00200121A3782BB11A
:103FC000144F012B09D0022B11D016E0402A14D136
:103FD000627992B9A170E0700FE00D2A04D0E37805
:103FE000FA545B1CE37008E00220A07005E00A2A86
:103FF00003D1A070E278B854617131462846BDE81B
:10400000F04100F009B8BDE8F08100000048004030
:10401000480000208A01002040F66A120A0A0121A5
:104020009140C94301807047002904D0818941F43F
:10403000005181817047818921F40051818170474D
:10404000002A03D0828A0A4382827047828A8A4386
:10405000828270470246002012880A4200D0012066
:10406000704770B5002440F66A12C1F3421301F0A4
:104070001F05012606FA05F2012B0CD0022B0DD0EC
:10408000838A1340090A8E40008830400BB100B18A
:104090000124204670BD83891340F3E7038A13404F
:1040A000F0E710B540F66A13C1F3421301F01F04A4
:1040B0000121A140012B07D0022B07D014303AB1C7
:1040C00002680A43026010BD0C30F8E71030F6E7D2
:1040D00002688A43026010BD30B585B004460D46C3
:1040E000208A4CF6FF710840E98801432182A089AB
:1040F0004EF6F3110840A9882A8911436A890243C0
:104100001143A181A08A4FF6FF410840A9890143CC
:10411000A1826846FFF736F91D48844201D1039811
:1041200000E00298A189090408D500EBC00101EB69
:10413000001029684900B0FBF1F007E000EBC00176
:1041400001EB001029688900B0FBF1F06422B0FB9C
:10415000F2F109010B096FF018056B4300EB8300C6
:10416000A3891D044FF0320307D503EBC000B0FB59
:10417000F2F000F00700084306E003EB0010B0FB8C
:10418000F2F000F00F000843208105B030BD0000C0
:10419000003801408088C0F308007047C1F308016F
:1041A000818070474FF41651016000218180C180E9
:1041B00001810C22428181817047FEE7490050EA6B
:1041C000C12018BF04204A0D18BF40F0010040F282
:1041D000FF72B2EB515F08BF40F00200012808BF38
:1041E000052070472DE9F0414F1E00EBC701044642
:1041F000D1E9000115461E4637F006020DD02A46C9
:10420000334600F099FD7F1E04EBC703D3E900237A
:1042100000F0EEFA37F00602F1D1022F25D0042F7C
:1042200013D0062F18BFBDE8F0812A46334600F0B0
:1042300083FDD4E90A2300F0DBFA2A46334600F076
:104240007BFDD4E9082300F0D3FA2A46334600F078
:1042500073FDD4E9062300F0CBFA2A46334600F07A
:104260006BFDD4E9042300F0C3FA2A46334600F07C
:1042700063FDD4E9022300F0BBFA2A46334600F07E
:104280005BFDD4E90023BDE8F04100F0B1BA0122A2
:1042900001F047BB00F0ACBA024A0020110701F060
:1042A00040BB000001FDFFFF30380A2801D2012089
:1042B00070470020704700002DE9F84F04460D4676
:1042C00021F0004000917349814211DC724988421B
:1042D00001DC06D12CB120462946BDE8F84FFFF796
:1042E000D6BF6E48002DCCBF6D496E49BDE8F88F32
:1042F0006D49814211DD6D498142D8BF4FF0FF36D3
:104300006DDD20462946FFF759FF042808BFFFF757
:10431000C3FF20462946BDE8F88F6549654F25F063
:104320000045814233DD6449814219DD0026324671
:104330004FF080432046294600F05AFA80468A46CC
:1043400001222046294601F0ECFA00223B4600F00B
:10435000E3FE4246534600F007FB04460D463EE0AE
:1043600001260022BA463B462046294600F040FA84
:1043700080460F46002253462046294600F0CCFED8
:1043800042463B4600F0F0FA04460D4627E04B4912
:1043900081421BDDDFF828A1022600225346204679
:1043A000294600F0C9FC00223B4600F021FA804675
:1043B0000F46002253462046294600F0ADFE4246F5
:1043C0003B4600F0D1FA04460D4608E0032622469B
:1043D0002B4600203B4900F0C7FA04460D46224612
:1043E0002B461046194600F0A7FC8B468246024633
:1043F0000B4600F0A1FC07460246334888460B46B0
:1044000006217844FFF7EEFE52465B4600F094FC2E
:1044100082462E488B463A46434605217844FFF7AC
:10442000E1FE3A46434600F087FC02460B46002E6A
:10443000504659460CDA00F0DBF922462B4600F0D4
:104440007BFC01B022462B46BDE8F04F00F072BD68
:1044500000F0CEF922462B4600F06EFC1C4A7A444E
:1044600002EBC603D3E9002300F056FE22462B469A
:1044700000F052FE174A7A4402EBC603D3E9002348
:1044800000F058FD009A002AB8BF81F00041BDE855
:10449000F88F0000000010440000F07F182D4454F5
:1044A000FB21F93FFB21F9BF0000DC3F0000203E6B
:1044B0000000F33F0000F03F0000E63F00800340B3
:1044C0000000F83F0000F0BF421C0000001C00008C
:1044D0009E1B0000661B00002DE9F04D9446CCF1B8
:1044E000000423F000464CEA0404594F46EAD47411
:1044F0009A46884621F00042BC4206D8454240EA2E
:10450000050442EAD474BC4204D9BDE8F04D6246C9
:10451000FFF7C0BEAAF14055A5F17F6555EA0C042E
:104520000BD0022404EAAA744A4DDFF82CE144EAD5
:10453000D87452EA000B04D00CE0BDE8F04DFFF750
:10454000BBBE002C14BF012CBDE8F08D022C30D076
:10455000032C32D056EA0C0B0AD0BE4220D1BA420C
:1045600009D126F0804622F080423346114617E0FA
:1045700000291ADB25E0DFF8E4B0FB44002C04BF7F
:10458000DBE90001BDE8F08D012C02BFDBE9000191
:1045900081F00041BDE8F08D022C0AD0032C0CD034
:1045A000BA4212D1B8F1000F0BDA2A482C49BDE803
:1045B000F08D28462B49BDE8F08D28467146BDE8B0
:1045C000F08D24482849BDE8F08D921B12153C2A35
:1045D000C4BF204F244E10DCBAF1000FBEBF12F151
:1045E0003C0F00273E4608DB624600F0BDF921F093
:1045F0000041FFF761FE07460E4694B1012C08BF4B
:1046000086F000460DD0194A194B022C3846314627
:1046100015D000F081FD2A46BDE8F04D114B00F0A9
:104620007BBD002213463846314600F0F5FA04BF40
:104630000220FBF7C5FF38463146BDE8F08D00F09B
:104640006BFD2A46BDE8F04D064B00F073BC000040
:104650000000F07F182D4454FB2109C0FA1A000015
:10466000FB21F9BFFB210940FB21F93F075C143313
:1046700026A6A13C6420FDF7F9FBFEF7A1F8174C34
:10468000174D0026207860B1607828B1FEF76CFBEA
:10469000FEF7D8FB66700EE0FEF72AFBFEF79CFBE8
:1046A00009E0A07838B1E07818B1FEF7F1FAE670C9
:1046B00001E0FEF7D1FA287868B1012802D003287A
:1046C00009D104E0FDF7FEFE0220287003E0054852
:1046D000FDF71CFE2E70FEF7A3FFD3E714000020A9
:1046E00039000020D80000202DE9F04106460F4691
:1046F00000F02CFC041E0D4618BF0120284320F0BA
:104700000040C0F17F6000F1E040C00F0ED0301CCF
:1047100018BF0120384320F00040C0F17F6000F155
:10472000E040C00F04BF0120FBF74AFF20462946A6
:10473000BDE8F08110B500290AD00878002807D01C
:1047400005487844FBF7F4FE002801D0002010BD96
:104750000248784410BD00001A1A0000121A000026
:1047600010B500290AD00878002807D005487844F9
:10477000FBF7DEFE002801D0002010BD024878447F
:1047800010BD00000A1A0000021A000021F00042C9
:10479000A2F16052B2F5801F01F0004328BFD2F1B0
:1047A0007F6C0BD95FEA001C43EAC20242EB5070F7
:1047B00018BF704728BF20F001007047B2F5801F76
:1047C000BCBF184670474FEA410C1CF5001F02D2CF
:1047D000084600F0F6BF70B500F058FB00000089F5
:1047E000FFF7F6BF4FF00040A0F5800070470000D3
:1047F00010B591EA030F48BF83F0004300F19484A1
:10480000841A71EB030C05D2121943EB0C03001B45
:1048100061EB0C01DFF824E14FEA1154A4EB135CC7
:104820001EEA430F18BF9EEA445F73D023EA0E03CB
:10483000DCF1200E21EA045143F4801332D322FA32
:104840000CFE10EB0E0023FA0CFE41EB0E01CCF136
:10485000200E03FA0EFE10EB0E0051F10001B1F52F
:10486000801FCCF1200E32D201EB045112FA0EF26D
:10487000BDE8104058BF7047401C38BF5FEA420295
:1048800018BF7047002814BF20F0010041F100015B
:104890004FEA410313F5001F38BF7047A1F1C04133
:1048A00000F042BB012A43EB0302ACF1200CDCF127
:1048B0001F0E32BF4FF0000E23FA0CF310EB030073
:1048C00041EB0451B4EB115FD0D0A1EB045101F5E1
:1048D000801149085FEA300001EB04510ED350F11A
:1048E000000038BF12FA0EFE08D1BDE81040C9E73B
:1048F000401C38BF5FEA4202CAD1C3E7BDE810409E
:104900004FEA410313F5001F38BF7047A1F1C041C2
:1049100000F00ABB9EEA445F08D011EA5E0FBDE8D2
:10492000104004BF01F0004100207047BDE8104076
:1049300070B500F0ABFA00BF64FBBE3E0000E0FFC4
:1049400002494FF0000000F0BABF00BF0000F87F3E
:10495000491058BFC1F140415B1058BFC3F14043FB
:104960008B42EFF3008070472DE9C04130B4DFF88F
:10497000A0C23CEA111418BF3CEA131400F0EC800A
:1049800081EA03051CEA111444EAD57418BF1CEA35
:10499000131500F0C780A4EB05044FF0004545EA6D
:1049A000C12145EAC32341EA505143EA525304F17D
:1049B0007F74994204F500344FEAC0204FEAC222C6
:1049C00008BF904200F09C804FEA13650FF240163A
:1049D000765D4FEA134506FB05F7C7F1807706FBC6
:1049E00007F74FEAD737A7FB03687642C8F5803848
:1049F000A7FB06CE38BFA8F1010807FB08E64FF079
:104A0000000EA6FB028CE6FB03CEDCF1000CCEF11F
:104A1000004E38BFAEF1010EA6FB0C584FF0000758
:104A20004FF00005E6FB0E87A1FB08C6A0FB07CEF2
:104A300016EB0E0645F10005E1FB076515F1E04EAA
:104A40007EBFA4F580345FEA46066D4116F180070B
:104A500045F100054FEA17274FEA066647EA056762
:104A6000A6F1DE46B6F1805F4FEA15251FD938461C
:104A700024F0010C05EBC471BCF1FE6F01EB0C11CD
:104A800002D8F0BCBDE8008124425CBF01F5801E65
:104A90009EEAC47F02D4F0BCBDE80081244238D431
:104AA000F0BCA1F1C041BDE8004100F03DBA4FEAC1
:104AB000D22242EA43524FEAD323A7FB02864FEAAF
:104AC000D02040EA415007FB03661EEA0E0F4FEA72
:104AD000D12105FB026658BFA6EB0056B6EB005687
:104AE0004FEA520E4EEAC37E18EB0E0E56EB530EF3
:104AF000BDD518EB02085E417F1C55F10005B6E7F5
:104B00004FF480154FF000074FF000064FF00008FB
:104B1000ADE7F0BC4FF0000001F1C04101F00041F1
:104B2000BDE8008111EA0C1F0CEA131500D00CE05F
:104B300013EA0C1F00F025804FF00000F0BC81EA62
:104B4000030101F00041BDE80081F0BCBDE8004177
:104B500081EA030100F0E8B9F0BCBDE8004170B59E
:104B600000F094F9097EFC3E00F007B881EA0301E9
:104B70004FF0000001F00041704781EA030100F0AE
:104B8000D3B9F0BCBDE800414FF0000021497047A7
:104B9000FFFDFBF9F7F5F4F2F0EEEDEBE9E8E6E402
:104BA000E3E1E0DEDDDBDAD8D7D5D4D3D1D0CFCD89
:104BB000CCCBCAC8C7C6C5C4C2C1C0BFBEBDBCBBC2
:104BC000BAB9B8B7B6B5B4B3B2B1B0AFAEADACABBD
:104BD000AAA9A8A8A7A6A5A4A3A3A2A1A09F9F9E97
:104BE0009D9C9C9B9A999998979796959594939349
:104BF000929191908F8F8E8E8D8C8C8B8B8A8989E0
:104C00008888878786858584848383828281818062
:104C10000000FF070000F87F51EA030C17D41CF5D1
:104C2000801F58BFBCF5801F00F10680994218BF55
:104C3000704708BF9042704707D711F5801F58BFD3
:104C400013F5801F19D499427047894270471CF5AB
:104C5000801F08D5BCF5801FF7D58B4218BF704761
:104C600008BF824270474FF4001C1CEB410F38BF55
:104C70001CEB430F01D28B42704770B500F006F970
:104C8000922449004FF000514FF08053FFF760BE6F
:104C900010F0004248BF4042B0FA80F310FA03F12E
:104CA0000AD0C3F11D0303F580634FEA415002EBC4
:104CB000035202EBD12170474FF000007047000013
:104CC00051EA030C17D41CF5801F58BFBCF5801F98
:104CD00000F10680994218BF704708BF90427047A4
:104CE00007D711F5801F58BF13F5801F19D49942BB
:104CF0007047894270471CF5801F08D5BCF5801F9E
:104D0000F7D58B4218BF704708BF824270474FF4F7
:104D1000001C1CEB410F38BF1CEB430F01D28B4230
:104D2000704770B500F0B2F8922449004FF000517E
:104D30004FF08053FFF70CBEDFF848C170B51CEA96
:104D4000111E1EBF1CEA13159EEA0C0F95EA0C0FEC
:104D500000F06F8081EA030423EA4C134EEAD47E0C
:104D600021EA4C1141F4801143F48013AE44A1FBBD
:104D7000024CA0FB0365AEF17F7E361955EB0C05A6
:104D8000A1FB034C4CF10003A0FB021C16EB0C062C
:104D9000654153F10003094218BF46F0010613F4C0
:104DA000007F0BD14FEA03314FEA0530340341EA6B
:104DB000155140EA16506FF003020AE04FEAC32192
:104DC0004FEAC520F40241EA555140EA56506FF0CF
:104DD000020202EB2E4201EB025585EACE710AD0A7
:104DE0005FEA440C18BF24F0004450F1000041F188
:104DF000000120EAD47040F2FE7C624500D270BD12
:104E0000A84214BF4FF080444FF04044002E08BF2A
:104E10000024BEF1806FA8BFA1F1C041BDE8704081
:104E200080F282804FF0000001F1C04101F00041AA
:104E300070479EEA0C0F0CEA131518BF95EA0C0F89
:104E400006D04FF0000081EA030E0EF0004170BD65
:104E500000F01CF88900013E00F007B800F009B826
:104E60004FEA430C5FEA5C5C08D081EA030100F082
:104E70005BB84FEA410C5FEA5C5CF6D14FF0000092
:104E8000014970470000FF070000F87F0EF1020E95
:104E90002EF0030E5EF8046B364205D4012A43EB74
:104EA000030515F5001F12D8012841EB010C1CF574
:104EB000001F0CD80ED14FEAD17C15F5001F0CEB6A
:104EC0004C0C0CF1020C08BF4CEBD37C04E04FF00F
:104ED000080C01E04FEAD37C0CEB4C0526FA05F6F2
:104EE00006F00706B6F1040C06D20EEB860CBDE800
:104EF00070404CF0010C6047DFE80CF0090B020237
:104F00004FF000414FF00000A1F5002170BD19469F
:104F10001046012851EB010418BFD4F5001484BFDA
:104F2000002001F0004170BD0808A0F500114FEA13
:104F30003101704791EA030F10B581F000413FF550
:104F40005FAC83F0004300F0EFB800002DE9F041C2
:104F500001F5801CBCF5001FC0F2C3804FEA115C54
:104F600021EA0C510CF1FD0C41F480115FEA5C0C5C
:104F70000CF5C07C01D3400049413DA4890241EABF
:104F8000905187028E0E0A0CA45D04FB04F602FB0E
:104F900006F6C6F14046A4FB0662F60D46EA422636
:104FA00006FB06F4A4FB01235242C3F1404338BF81
:104FB0005B1EA6FB02420024E6FB0324D20B42EA5E
:104FC0004446A6FB0623A1FB02E2A3FB07E4A418C8
:104FD0004FF0000252F10002E3FB01426442C2F1D1
:104FE000404E38BFAEF1010EA6FB04234FF0000285
:104FF000E6FB0E32A2FB03464FF00004B61954F153
:105000000004E2FB0264A1FB06E6A4FB07E816EB42
:1050100008064FF0000858F10008E4FB01687642EA
:10502000C8F1405838BFA8F10108A2FB06E4A3FB71
:1050300008E52D194FF0000454F10004E2FB085478
:10504000A1FB05E6A7FB04E818EB06084FF00006F5
:1050500056F10006E1FB048618F1200556F1000622
:10506000A809A8F11B08B10908F03F08B8F10A0F18
:1050700040EA86601CD901EB0C51BDE8F08100BF0D
:10508000FCF5EEE8E2DDD8D3CFCBC7C3C0BDB9B6DF
:10509000B4B1AEACA9A7A5A3A19F9D9B9A989695E4
:1050A0009392908F8D8C8B8988878685848382816B
:1050B000A0FB006800FB01F208EB4208B8EB872870
:1050C00007D5341858EB0104D5D5401C51F1000127
:1050D000D1E7341A78EB0104CDD4401E71F1000100
:1050E000C9E75FEA4C0C5FEA9C5C0DD105D34FF039
:1050F000000001F00041BDE8F081BDE8F04170B56D
:10510000FFF7C4FE6DDBFFBEBDE8F0414FF00000CD
:10511000004970470000F87F10B591EA030F48BFBF
:1051200083F000433FF56CAB841A71EB030C07D29C
:1051300012198CF0004C43EB0C03001B61EB0C01CB
:10514000DFF8A4E14FEA1154A4EB135C1EEA430F0D
:1051500018BF9EEA445F00F0B08023EA6E0352421B
:1051600021EA0451C3EB6E0338BF5B1EDCF1200E55
:1051700025D322FA0CFE10EB0E0043FA0CFE41EB95
:105180000E01CCF1200E03FA0EFE10EB0E0051F1D1
:105190000001CCF1200E29D412FA0EF201EB0451D9
:1051A000BDE8104058BF7047401C1CBFB2F1004F13
:1051B000704700280CBF491C20F00100704712EB1B
:1051C000020E43EB030218BF4FF0010E4EEA4202FB
:1051D000ACF1200CDCF11E0E54D943FA0CFE10EB9E
:1051E0000E0051F1FF31CCF11E0ED5D50EF1010E9E
:1051F00012FA0EFE404141EB010101EB445C5FEA13
:105200005C5C10D910EBDE7001EB045138BFBEF1CD
:10521000004FBDE8104018BF704700280CBF491C64
:1052200020F00100704730D24FEAD42C11F5001164
:1052300024F400641BD0B1FA81F20B3AA41AA41E24
:10524000D2F12003914030FA03F31943904001EB6F
:10525000CC71002C01EB0451BDE81040A8BF704791
:1052600001F1C0414FF0000001F000417047B0FA79
:1052700080F310FA03F100D110BDE41A173C480581
:10528000C90AE4E701EB045110BD491001EB0451D8
:10529000BDE810404FEA300002E04FF000017047D7
:1052A0004A0008BF0042F8D0B2F5001F28BF70477F
:1052B00001F000414FF0000070479EEA445F07D0C4
:1052C00011EA5E0FBDE8104004BF002100207047C6
:1052D000BDE8104070B5FFF7D9FD00BF40DFF63ED6
:1052E00083F00041104670470000E0FF43004FEAA2
:1052F000D30C4FEA3C0C43401FBF40070CF16051F8
:1053000013F0FE4F70471CF0006F03D100200CF02B
:10531000004170470CF0004343EA507010B540EA7A
:10532000CC0000F008FA00BF000000924FEA000134
:10533000FFF7FABD4FF000414FF00000A1F500214A
:105340007047000090EA010F48BF81F0004100F172
:105350004482421A3CBF801A89184FEAD0524FF05B
:105360007F4C1CEA410FA2EBD15318BF9CEA026F9D
:1053700000F03B804FF0004C4CEA00204CEA012149
:1053800021FA03FC10EB0C0C1ED202F1FF325FEA93
:105390001C2040EBC25038BF70471CF07F0F4FEA13
:1053A000400C18BFBCF17F4F38BF7047C3F12003DA
:1053B000994008BF20F00100BCF17F4F38BF704713
:1053C000A0F1C04000F0FDB94FEA3C00000A40EBFC
:1053D000C25028BF1CF0FF0F4FEA400CE6D018BFA8
:1053E000BCF17F4F38BF7047EAE79CEA026F05D0F7
:1053F00010EA5C0F08BF00F00040704710B500F0E5
:105400009AF900BF64FBBE3E4FF47F0C1CEAD01239
:105410001EBF1CEAD11392EA0C0F93EA0C0F00F0A6
:10542000858090EA010F48BF42F4807240F4000C7E
:1054300041F400002CF07F4120F07F4000B5814214
:10544000A2EB03020FF2081CACEB504EC0F10000BF
:105450009EF800E04FEA4E0E00FB0EFC38BF4900FC
:105460004FEA2C1C02F5FA020CFB0EF34FEACE1E9B
:105470004FEA112C4FEAC1210EEB635E42EB224250
:105480000EFB0CFC4FEA1C5300FB03114FEA112CDE
:105490004FEA01310EFB0CFC4FEADC4C00FB0C1117
:1054A000C14228BF09184CEB03335DF804EB10EB45
:1054B000410143EBC250B2F57C0F38BF704729D58C
:1054C00012F0F00F1CBF00F1C04000F00040704728
:1054D000008182838485868788898B8C8D8E8F91CD
:1054E0009293959697999A9C9D9FA0A2A3A5A7A8F1
:1054F000AAACAEB0B2B3B5B7B9BCBEC0C2C5C7C91D
:10550000CCCED1D4D7D9DCDFE2E6E9ECF0F3F7FA80
:10551000FE0000004FEA400C0CF1807CBCF17E4F95
:1055200028BF7047B0F1C04000F04BB990EA010FBE
:105530000CEAD11348BF42F48072624538BF63451C
:1055400007D213F47F0F16D080EA010000F000406C
:10555000704710B500F0EFF8097EFC3E00F005B88A
:1055600080EA010000F00040704780EA010000F08E
:10557000004000F026B912F47F0F04BF02487047C4
:1055800080EA010000F01DB90000C07F41000B0E51
:10559000D3F19E0208D950F400034FEA032323FA03
:1055A00002F048BF4042704710B500F0C4F800BF99
:1055B00049922480002070476FF0004282EA200068
:1055C00070470000C10DD1F19E0206DB4FEA0023B7
:1055D00043F0004323FA02F07047004207D54FEA38
:1055E0004001B1F1FE4F02D24FF00000704710B5FC
:1055F00000F0A1F849922480002070476FEA200053
:105600007047000010F0004148BF4042B0FA80F3FC
:1056100010FA03F2C3F19D030BD051EAC35101EB21
:105620001220530638BF704700F1010008BF20F078
:10563000010070474FF47F0C1CEAD0121EBF1CEA19
:10564000D11392EA0C0F93EA0C0F00F0478090EA16
:10565000010F48BF42F480724FF0004C4CEA00202A
:105660004CEA012102EB0302A0FB0113A2F50002A8
:10567000002918BF43F001035B0028BF4FEA330342
:1056800042EB22425FEA132C4CEBC2502EBFBCEB24
:10569000436FB2F57C0F70474FEA036CBCF1004FCB
:1056A00008BF20F00100B2F57C0F38BF70470BD562
:1056B00082F0FF0212F5803FC8BF704700F1C04082
:1056C000D8BF00F00040704700F5000C5FEA4C0CBA
:1056D00048BF7047B0F1C04000F073B890EA010FC6
:1056E0000CEAD11348BF42F48072624538BF63456B
:1056F00004D280EA010000F00040704710B500F0CD
:105700001AF800BF8900013E00F007B800F009B8A0
:105710005FEA410C5FEA1C6C08D080EA010000F0EF
:1057200050B85FEA400C5FEA1C6CF6D14FF00040C5
:10573000A0F5800070470EF1020E2EF0030E5EF809
:10574000044B244204D44FEA4102B2F17F4F11D8F6
:105750004FEA4003B3F17F4F0CD80ED14FEAD07C13
:10576000B2F17F4F0CEB4C0C0CF1020C08BF4CEB70
:10577000D17C04E04FF0080C01E04FEAD17C0CEB47
:105780004C0324FA03F404F00704B4F1040C06D229
:105790000EEB840CBDE810404CF0010C6047DFE8D4
:1057A0000CF0070802024FF00040A0F5800010BD89
:1057B0000846420018BFD2F1807288BF00F0004056
:1057C00010BDFF2141EAD050C005704790EA010F9B
:1057D00048BF81F000413FF5BCAD421A04D882F0C9
:1057E0000042A0EB020011444FEAD0524FF07F4C30
:1057F0001CEA410FA2EBD15318BF9CEA026F4AD0BA
:105800004FF0004C4CEA00204CEA012121FA03FC45
:10581000B0EB0C0C0FD412F0FE0F36D05FEA4C0048
:105820001DD5001240EBC25038BF70471CF03F0F2F
:1058300018BF70470BE0A2F101025FEA1C2040EBA9
:10584000C25038BF70471CF07F0F18BF7047C3F1BC
:105850002003994014BF401E20F0010070478008CB
:105860004FEA122308BF7047B0FA80FCA2EB0C028B
:10587000CCF1280C60FA0CF093EA122F04BF00EB75
:10588000C25070474FEAC3707047130A5FEADC10DA
:1058900008BF7047F6E79CEA026F04D010EA5C0F7D
:1058A00008BF0020704710B5FFF745FF40DFF63E08
:1058B00081F000407047FBF714B8FBF765BB0CF0B4
:1058C0000F03092B08BF082000F059800A2B0BD0CA
:1058D000082B18BF704708BF1CF0400F0AD04FF0CC
:1058E00000004FF0000170471CF0400F18BF4FF050
:1058F000004070471CF0100F08D020F0704300F0FB
:105900007F4242EAD3014FEA4370704700F06040A3
:1059100021F07F4242EA000201F07F4040EA7270CB
:1059200070474FF0FF0C4CF4E06C1CEA11531CBFA5
:105930009CEA030C9445C2BFDA4201EB0251704766
:10594000002B0DD0BCF1000F0FD0002A01F0004158
:10595000A4BF41F0E04141F07F614FF0000070478B
:1059600001F000414FF00000704750EA01334FF062
:105970009B0C18BF4CF0806C7EF4E2AF70471CF4B7
:10598000801F11D01CF4E02F03D06FEACC31490006
:1059900070474FF04050EFF3008222F0704242EA2D
:1059A000000282F3008870474FF00000704700004B
:1059B00000000000000000000000000000000000E7
:1059C00000F800000000000000333000000000106C
:1059D0000C06100C0600000000000000000040C093
:1059E0007840C0784000043F04043F040400007085
:1059F00088FC08300000001820FF211E0000F0087D
:105A0000F000E018000000211C031E211E0000F021
:105A10000888700000001E21232419272110101669
:105A20000E00000000000000000000000000000068
:105A300000E01804020000000007182040000002E7
:105A40000418E0000000004020180700000040405B
:105A500080F0804040000202010F010202000000BD
:105A600000F0000000000101011F01010100000021
:105A700000000000000080B0700000000000000086
:105A8000000000000000000101010101010100000F
:105A900000000000000000303000000000000000A6
:105AA000000080601804006018060100000000E09B
:105AB00010080810E000000F102020100F00001048
:105AC00010F8000000000020203F2020000000709F
:105AD0000808088870000030282422213000003097
